{
  "transactions": [
    {
      "hash": "0x3aa9f0a07674fcaeb49a82f8672144f379cc1649eeff25503ef0856c7ed45ce0",
      "transactionType": "CALL",
      "contractName": "BadMechSuit2",
      "contractAddress": "0xA271D8A5BA99B692bfE5AdBC29074f37329fFe17",
      "function": "fireCrossbow(uint256):(bytes32)",
      "arguments": [
        "8"
      ],
      "rpc": "https://rpc.ankr.com/eth_goerli",
      "transaction": {
        "type": "0x02",
        "from": "0xc2ba723430706885144a37b2ec74feb82a0c1333",
        "to": "0xa271d8a5ba99b692bfe5adbc29074f37329ffe17",
        "gas": "0xb7b0",
        "value": "0x0",
        "data": "0xb1e2f5990000000000000000000000000000000000000000000000000000000000000008",
        "nonce": "0x3",
        "accessList": []
      },
      "additionalContracts": [],
      "isFixedGasLimit": false
    },
    {
      "hash": "0x2c295ac26901d3910a140c8f20359a7c3d02e3b7c0b36936335b00e989a49ee4",
      "transactionType": "CALL",
      "contractName": "BadMechSuit2",
      "contractAddress": "0xA271D8A5BA99B692bfE5AdBC29074f37329fFe17",
      "function": "upgrade()",
      "arguments": [],
      "rpc": "https://rpc.ankr.com/eth_goerli",
      "transaction": {
        "type": "0x02",
        "from": "0xc2ba723430706885144a37b2ec74feb82a0c1333",
        "to": "0xa271d8a5ba99b692bfe5adbc29074f37329ffe17",
        "gas": "0x2474c",
        "value": "0x0",
        "data": "0xd55ec697",
        "nonce": "0x4",
        "accessList": []
      },
      "additionalContracts": [
        {
          "transactionType": "CREATE",
          "address": "0x480B5a9Bd7242E370f25FB2a6C124E83A7f874d2",
          "initCode": "608060405234801561001057600080fd5b5060f88061001f6000396000f3fe6080604052348015600f57600080fd5b506004361060285760003560e01c8063c350529414602d575b600080fd5b60336047565b604051603e919060a9565b60405180910390f35b600080600160009054906101000a900463ffffffff1663ffffffff1611606c57600080fd5b7f9ec0ab26a87872971f1055392518ec4bc9a519d9f0a6b30a1b8e8b679e231e26905090565b6000819050919050565b60a3816092565b82525050565b600060208201905060bc6000830184609c565b9291505056fea2646970667358221220f171b3daa28a5972a6c7ab88386a2e0ec9aa42d0a14a26fe90c1628fd41de1bf64736f6c63430008100033"
        }
      ],
      "isFixedGasLimit": false
    }
  ],
  "receipts": [
    {
      "transactionHash": "0x3aa9f0a07674fcaeb49a82f8672144f379cc1649eeff25503ef0856c7ed45ce0",
      "transactionIndex": "0x1",
      "blockHash": "0xe42366ed7190a271c209e15e5e6801a9969a3f511a229af928abbdbc0956f717",
      "blockNumber": "0x9781c4",
      "from": "0xc2ba723430706885144a37b2EC74feb82A0C1333",
      "to": "0xA271D8A5BA99B692bfE5AdBC29074f37329fFe17",
      "cumulativeGasUsed": "0xcfa2",
      "gasUsed": "0x7d9a",
      "contractAddress": null,
      "logs": [],
      "status": "0x1",
      "logsBloom": "0x00000000000000000000000000000000000000000000000000000000000000000000000000000000000000000000000000000000000000000000000000000000000000000000000000000000000000000000000000000000000000000000000000000000000000000000000000000000000000000000000000000000000000000000000000000000000000000000000000000000000000000000000000000000000000000000000000000000000000000000000000000000000000000000000000000000000000000000000000000000000000000000000000000000000000000000000000000000000000000000000000000000000000000000000000000000",
      "type": "0x2",
      "effectiveGasPrice": "0xb2df81a8"
    },
    {
      "transactionHash": "0x2c295ac26901d3910a140c8f20359a7c3d02e3b7c0b36936335b00e989a49ee4",
      "transactionIndex": "0x2",
      "blockHash": "0xe42366ed7190a271c209e15e5e6801a9969a3f511a229af928abbdbc0956f717",
      "blockNumber": "0x9781c4",
      "from": "0xc2ba723430706885144a37b2EC74feb82A0C1333",
      "to": "0xA271D8A5BA99B692bfE5AdBC29074f37329fFe17",
      "cumulativeGasUsed": "0x27601",
      "gasUsed": "0x1a65f",
      "contractAddress": null,
      "logs": [],
      "status": "0x1",
      "logsBloom": "0x00000000000000000000000000000000000000000000000000000000000000000000000000000000000000000000000000000000000000000000000000000000000000000000000000000000000000000000000000000000000000000000000000000000000000000000000000000000000000000000000000000000000000000000000000000000000000000000000000000000000000000000000000000000000000000000000000000000000000000000000000000000000000000000000000000000000000000000000000000000000000000000000000000000000000000000000000000000000000000000000000000000000000000000000000000000",
      "type": "0x2",
      "effectiveGasPrice": "0xb2df81a8"
    }
  ],
  "libraries": [],
  "pending": [],
  "path": "E:/projects/nodeguardians/ng-ctf-helper/broadcast\\AttackBadMechSuit2.s.sol\\5\\run-latest.json",
  "returns": {},
  "timestamp": 1698246833,
  "chain": 5,
  "multi": false,
  "commit": "c051a10"
}