{
  "transactions": [
    {
      "hash": "0x426b554afa247c51c74df98066b395e74dab6c15b9b7fa258a0f9aa6089bdc78",
      "transactionType": "CREATE",
      "contractName": "AttackMaagiriTrial",
      "contractAddress": "0x94825d5D5A284Fb4cB800dDAf5D184e02E2c485e",
      "function": null,
      "arguments": null,
      "rpc": "https://rpc.ankr.com/eth_goerli",
      "transaction": {
        "type": "0x02",
        "from": "0xc2ba723430706885144a37b2ec74feb82a0c1333",
        "gas": "0x21dee",
        "value": "0x0",
        "data": "0x608060405234801561001057600080fd5b5060f78061001f6000396000f3fe6080604052348015600f57600080fd5b506004361060285760003560e01c8063d018db3e14602d575b600080fd5b603c60383660046093565b603e565b005b806001600160a01b031663ec3f36366040518163ffffffff1660e01b8152600401600060405180830381600087803b158015607857600080fd5b505af1158015608b573d6000803e3d6000fd5b503392505050ff5b60006020828403121560a457600080fd5b81356001600160a01b038116811460ba57600080fd5b939250505056fea2646970667358221220cefd5a7757e1e7caeca368f485df7ce5e2a55b2b0b16ddc7bdb7d36502396a1964736f6c63430008130033",
        "nonce": "0x9",
        "accessList": []
      },
      "additionalContracts": [],
      "isFixedGasLimit": false
    },
    {
      "hash": "0x8b11a11368ee18c9b83ba5414d368f539acfe22298de19c842b634b0f70ea7e2",
      "transactionType": "CALL",
      "contractName": "AttackMaagiriTrial",
      "contractAddress": "0x94825d5D5A284Fb4cB800dDAf5D184e02E2c485e",
      "function": "attack(address)",
      "arguments": [
        "0x4d8E37e3a61F9283d6d26364710cbae3d7e63E20"
      ],
      "rpc": "https://rpc.ankr.com/eth_goerli",
      "transaction": {
        "type": "0x02",
        "from": "0xc2ba723430706885144a37b2ec74feb82a0c1333",
        "to": "0x94825d5d5a284fb4cb800ddaf5d184e02e2c485e",
        "gas": "0x12966",
        "value": "0x0",
        "data": "0xd018db3e0000000000000000000000004d8e37e3a61f9283d6d26364710cbae3d7e63e20",
        "nonce": "0xa",
        "accessList": []
      },
      "additionalContracts": [],
      "isFixedGasLimit": false
    }
  ],
  "receipts": [
    {
      "transactionHash": "0x426b554afa247c51c74df98066b395e74dab6c15b9b7fa258a0f9aa6089bdc78",
      "transactionIndex": "0x1",
      "blockHash": "0x8f09b5e0b3e43ad8cb89902af7b7ea6d0d549a84fd38fa542d4dacc54536b005",
      "blockNumber": "0x97a9cf",
      "from": "0xc2ba723430706885144a37b2EC74feb82A0C1333",
      "to": null,
      "cumulativeGasUsed": "0x37341",
      "gasUsed": "0x1a0f1",
      "contractAddress": "0x94825d5D5A284Fb4cB800dDAf5D184e02E2c485e",
      "logs": [],
      "status": "0x1",
      "logsBloom": "0x00000000000000000000000000000000000000000000000000000000000000000000000000000000000000000000000000000000000000000000000000000000000000000000000000000000000000000000000000000000000000000000000000000000000000000000000000000000000000000000000000000000000000000000000000000000000000000000000000000000000000000000000000000000000000000000000000000000000000000000000000000000000000000000000000000000000000000000000000000000000000000000000000000000000000000000000000000000000000000000000000000000000000000000000000000000",
      "type": "0x2",
      "effectiveGasPrice": "0xb2d05e18"
    },
    {
      "transactionHash": "0x8b11a11368ee18c9b83ba5414d368f539acfe22298de19c842b634b0f70ea7e2",
      "transactionIndex": "0x2",
      "blockHash": "0x8f09b5e0b3e43ad8cb89902af7b7ea6d0d549a84fd38fa542d4dacc54536b005",
      "blockNumber": "0x97a9cf",
      "from": "0xc2ba723430706885144a37b2EC74feb82A0C1333",
      "to": "0x94825d5D5A284Fb4cB800dDAf5D184e02E2c485e",
      "cumulativeGasUsed": "0x43e9b",
      "gasUsed": "0xcb5a",
      "contractAddress": null,
      "logs": [],
      "status": "0x1",
      "logsBloom": "0x00000000000000000000000000000000000000000000000000000000000000000000000000000000000000000000000000000000000000000000000000000000000000000000000000000000000000000000000000000000000000000000000000000000000000000000000000000000000000000000000000000000000000000000000000000000000000000000000000000000000000000000000000000000000000000000000000000000000000000000000000000000000000000000000000000000000000000000000000000000000000000000000000000000000000000000000000000000000000000000000000000000000000000000000000000000",
      "type": "0x2",
      "effectiveGasPrice": "0xb2d05e18"
    }
  ],
  "libraries": [],
  "pending": [],
  "path": "E:/projects/nodeguardians/ng-ctf-helper/broadcast\\AttackMaagiriTrial.s.sol\\5\\run-latest.json",
  "returns": {},
  "timestamp": 1698403256,
  "chain": 5,
  "multi": false,
  "commit": "95a0691"
}