{
  "transactions": [
    {
      "hash": "0x071845edfcfcc63c16b2e048270ed610b27b1ea3b21980bb43df8395d44cc393",
      "transactionType": "CREATE2",
      "contractName": "AttackMaagiriTrial",
      "contractAddress": "0xa9D1a73F4DC916442B80B6BcC1C2A3CaC0724CF8",
      "function": null,
      "arguments": null,
      "rpc": "https://rpc.ankr.com/eth_goerli",
      "transaction": {
        "type": "0x02",
        "from": "0xc2ba723430706885144a37b2ec74feb82a0c1333",
        "to": "0x4e59b44847b379578588920ca78fbf26c0b4956c",
        "gas": "0x352c6",
        "value": "0x0",
        "data": "0x000000000000000000000000000000000000000000000000000000000000000060a060405234801561001057600080fd5b50436080526080516101ba61002f6000396000604b01526101ba6000f3fe608060405234801561001057600080fd5b50600436106100415760003560e01c80630c55699c1461004657806356972a031461007f578063b4e2038314610094575b600080fd5b61006d7f000000000000000000000000000000000000000000000000000000000000000081565b60405190815260200160405180910390f35b61009261008d366004610154565b6100a7565b005b6100926100a2366004610154565b6100fe565b806001600160a01b031663ec3f36366040518163ffffffff1660e01b8152600401600060405180830381600087803b1580156100e257600080fd5b505af11580156100f6573d6000803e3d6000fd5b503392505050ff5b806001600160a01b03166373dd90736040518163ffffffff1660e01b8152600401600060405180830381600087803b15801561013957600080fd5b505af115801561014d573d6000803e3d6000fd5b5050505050565b60006020828403121561016657600080fd5b81356001600160a01b038116811461017d57600080fd5b939250505056fea264697066735822122049019a00ac82e4db4cbbe305fcd21c8f709b0f41cf9a99bf063b66b9fdebe10164736f6c63430008130033",
        "nonce": "0xf",
        "accessList": []
      },
      "additionalContracts": [],
      "isFixedGasLimit": false
    },
    {
      "hash": "0xb83b231a11a70d8491ad61800c2852eef1ffb54e66e018e3e09225ca22a8f84a",
      "transactionType": "CALL",
      "contractName": "AttackMaagiriTrial",
      "contractAddress": "0xa9D1a73F4DC916442B80B6BcC1C2A3CaC0724CF8",
      "function": "firstStage(address)",
      "arguments": [
        "0x4d8E37e3a61F9283d6d26364710cbae3d7e63E20"
      ],
      "rpc": "https://rpc.ankr.com/eth_goerli",
      "transaction": {
        "type": "0x02",
        "from": "0xc2ba723430706885144a37b2ec74feb82a0c1333",
        "to": "0xa9d1a73f4dc916442b80b6bcc1c2a3cac0724cf8",
        "gas": "0x118ff",
        "value": "0x0",
        "data": "0x56972a030000000000000000000000004d8e37e3a61f9283d6d26364710cbae3d7e63e20",
        "nonce": "0x10",
        "accessList": []
      },
      "additionalContracts": [],
      "isFixedGasLimit": false
    }
  ],
  "receipts": [],
  "libraries": [],
  "pending": [
    "0x071845edfcfcc63c16b2e048270ed610b27b1ea3b21980bb43df8395d44cc393",
    "0xb83b231a11a70d8491ad61800c2852eef1ffb54e66e018e3e09225ca22a8f84a"
  ],
  "path": "E:/projects/nodeguardians/ng-ctf-helper/broadcast\\AttackMaagiriTrial.s.sol\\5\\run-latest.json",
  "returns": {},
  "timestamp": 1698433413,
  "chain": 5,
  "multi": false,
  "commit": "95a0691"
}