{
  "transactions": [
    {
      "hash": "0xcf50091321f0d2f9f309b017138e228f55bf453338deac55d07b0f81b3113b4f",
      "transactionType": "CREATE",
      "contractName": "AttackMaagiriTrialFactory",
      "contractAddress": "0x1108CD41F9a822C3145ff93C8Eab206377542CCA",
      "function": null,
      "arguments": null,
      "rpc": "https://rpc.ankr.com/eth_goerli",
      "transaction": {
        "type": "0x02",
        "from": "0xc2ba723430706885144a37b2ec74feb82a0c1333",
        "gas": "0x49832",
        "value": "0x0",
        "data": "0x608060405234801561001057600080fd5b5061033d806100206000396000f3fe608060405234801561001057600080fd5b506004361061002b5760003560e01c8063775c300c14610030575b600080fd5b610038610054565b6040516001600160a01b03909116815260200160405180910390f35b6000806040518060200161006790610111565b6020820181038252601f19601f8201166040525090506000808251602084016000f59050803b61009657600080fd5b61009f816100a5565b92915050565b6040516001600160a01b03821660248201526100ed9060440160408051601f198184030181529190526020810180516001600160e01b031663161765e160e11b1790526100f0565b50565b80516a636f6e736f6c652e6c6f67602083016000808483855afa5050505050565b6101e98061011f8339019056fe60a060405234801561001057600080fd5b50436080526080516101ba61002f6000396000604b01526101ba6000f3fe608060405234801561001057600080fd5b50600436106100415760003560e01c80630c55699c1461004657806356972a031461007f578063b4e2038314610094575b600080fd5b61006d7f000000000000000000000000000000000000000000000000000000000000000081565b60405190815260200160405180910390f35b61009261008d366004610154565b6100a7565b005b6100926100a2366004610154565b6100fe565b806001600160a01b031663ec3f36366040518163ffffffff1660e01b8152600401600060405180830381600087803b1580156100e257600080fd5b505af11580156100f6573d6000803e3d6000fd5b503392505050ff5b806001600160a01b03166373dd90736040518163ffffffff1660e01b8152600401600060405180830381600087803b15801561013957600080fd5b505af115801561014d573d6000803e3d6000fd5b5050505050565b60006020828403121561016657600080fd5b81356001600160a01b038116811461017d57600080fd5b939250505056fea2646970667358221220b8d1a42f26a5e42032c436a667ab68612b4875b2588444256d6edb81d783aa8964736f6c63430008130033a264697066735822122033015a88d29c80ba0cc0fc9c07e73fd24acf097ec6018965c29e41ebe2c5b49564736f6c63430008130033",
        "nonce": "0x11",
        "accessList": []
      },
      "additionalContracts": [],
      "isFixedGasLimit": false
    },
    {
      "hash": "0x345dc3e6553343960f58323605767f94a1d38d3e52b2e1bf062d5ea7d6ec167d",
      "transactionType": "CALL",
      "contractName": "AttackMaagiriTrialFactory",
      "contractAddress": "0x1108CD41F9a822C3145ff93C8Eab206377542CCA",
      "function": "deploy():(address)",
      "arguments": [],
      "rpc": "https://rpc.ankr.com/eth_goerli",
      "transaction": {
        "type": "0x02",
        "from": "0xc2ba723430706885144a37b2ec74feb82a0c1333",
        "to": "0x1108cd41f9a822c3145ff93c8eab206377542cca",
        "gas": "0x30f11",
        "value": "0x0",
        "data": "0x775c300c",
        "nonce": "0x12",
        "accessList": []
      },
      "additionalContracts": [
        {
          "transactionType": "CREATE2",
          "address": "0x79bE06D6a9Ec772ba33e4156615bcF16952D3EeC",
          "initCode": "60a060405234801561001057600080fd5b50436080526080516101ba61002f6000396000604b01526101ba6000f3fe608060405234801561001057600080fd5b50600436106100415760003560e01c80630c55699c1461004657806356972a031461007f578063b4e2038314610094575b600080fd5b61006d7f000000000000000000000000000000000000000000000000000000000000000081565b60405190815260200160405180910390f35b61009261008d366004610154565b6100a7565b005b6100926100a2366004610154565b6100fe565b806001600160a01b031663ec3f36366040518163ffffffff1660e01b8152600401600060405180830381600087803b1580156100e257600080fd5b505af11580156100f6573d6000803e3d6000fd5b503392505050ff5b806001600160a01b03166373dd90736040518163ffffffff1660e01b8152600401600060405180830381600087803b15801561013957600080fd5b505af115801561014d573d6000803e3d6000fd5b5050505050565b60006020828403121561016657600080fd5b81356001600160a01b038116811461017d57600080fd5b939250505056fea2646970667358221220b8d1a42f26a5e42032c436a667ab68612b4875b2588444256d6edb81d783aa8964736f6c63430008130033"
        }
      ],
      "isFixedGasLimit": false
    },
    {
      "hash": "0x943d1dfbfec4ece95c4dd139930756027bde2681d7f468ceb176f5e43d851baf",
      "transactionType": "CALL",
      "contractName": "AttackMaagiriTrial",
      "contractAddress": "0x79bE06D6a9Ec772ba33e4156615bcF16952D3EeC",
      "function": "firstStage(address)",
      "arguments": [
        "0x4d8E37e3a61F9283d6d26364710cbae3d7e63E20"
      ],
      "rpc": "https://rpc.ankr.com/eth_goerli",
      "transaction": {
        "type": "0x02",
        "from": "0xc2ba723430706885144a37b2ec74feb82a0c1333",
        "to": "0x79be06d6a9ec772ba33e4156615bcf16952d3eec",
        "gas": "0x118ff",
        "value": "0x0",
        "data": "0x56972a030000000000000000000000004d8e37e3a61f9283d6d26364710cbae3d7e63e20",
        "nonce": "0x13",
        "accessList": []
      },
      "additionalContracts": [],
      "isFixedGasLimit": false
    }
  ],
  "receipts": [],
  "libraries": [],
  "pending": [
    "0xcf50091321f0d2f9f309b017138e228f55bf453338deac55d07b0f81b3113b4f",
    "0x345dc3e6553343960f58323605767f94a1d38d3e52b2e1bf062d5ea7d6ec167d",
    "0x943d1dfbfec4ece95c4dd139930756027bde2681d7f468ceb176f5e43d851baf"
  ],
  "path": "E:/projects/nodeguardians/ng-ctf-helper/broadcast\\AttackMaagiriTrial.s.sol\\5\\run-latest.json",
  "returns": {},
  "timestamp": 1698433862,
  "chain": 5,
  "multi": false,
  "commit": "95a0691"
}