{
  "transactions": [
    {
      "hash": "0xd0be2151e016fc30e2cf9eed80dd5bb2c939001dab1716119887c1595635d44d",
      "transactionType": "CALL",
      "contractName": null,
      "contractAddress": "0xD3eb9f3088ad48528fE2E6d2fbf8740EB269168b",
      "function": null,
      "arguments": null,
      "rpc": "https://rpc.ankr.com/eth_goerli",
      "transaction": {
        "type": "0x02",
        "from": "0xc2ba723430706885144a37b2ec74feb82a0c1333",
        "to": "0xd3eb9f3088ad48528fe2e6d2fbf8740eb269168b",
        "gas": "0x30f30",
        "value": "0x0",
        "data": "0x775c300c",
        "nonce": "0x18",
        "accessList": []
      },
      "additionalContracts": [
        {
          "transactionType": "CREATE2",
          "address": "0x4BA7dCC165A13C3c180a0d5874162247d12d5d4c",
          "initCode": "60a060405234801561001057600080fd5b50436080526080516101ba61002f6000396000604b01526101ba6000f3fe608060405234801561001057600080fd5b50600436106100415760003560e01c80630c55699c1461004657806356972a031461007f578063b4e2038314610094575b600080fd5b61006d7f000000000000000000000000000000000000000000000000000000000000000081565b60405190815260200160405180910390f35b61009261008d366004610154565b6100a7565b005b6100926100a2366004610154565b6100fe565b806001600160a01b031663ec3f36366040518163ffffffff1660e01b8152600401600060405180830381600087803b1580156100e257600080fd5b505af11580156100f6573d6000803e3d6000fd5b503392505050ff5b806001600160a01b03166373dd90736040518163ffffffff1660e01b8152600401600060405180830381600087803b15801561013957600080fd5b505af115801561014d573d6000803e3d6000fd5b5050505050565b60006020828403121561016657600080fd5b81356001600160a01b038116811461017d57600080fd5b939250505056fea2646970667358221220bcfdc82607266d9ea729530127ce211874d06c666bbfda83007f1bddbf2101d464736f6c63430008130033"
        }
      ],
      "isFixedGasLimit": false
    },
    {
      "hash": "0x0fd387712b478504c14064aed2d5f4730dc72089cf4bbe9c43494ce875839ac1",
      "transactionType": "CALL",
      "contractName": "AttackMaagiriTrial",
      "contractAddress": "0x4BA7dCC165A13C3c180a0d5874162247d12d5d4c",
      "function": "firstStage(address)",
      "arguments": [
        "0x4d8E37e3a61F9283d6d26364710cbae3d7e63E20"
      ],
      "rpc": "https://rpc.ankr.com/eth_goerli",
      "transaction": {
        "type": "0x02",
        "from": "0xc2ba723430706885144a37b2ec74feb82a0c1333",
        "to": "0x4ba7dcc165a13c3c180a0d5874162247d12d5d4c",
        "gas": "0x118ff",
        "value": "0x0",
        "data": "0x56972a030000000000000000000000004d8e37e3a61f9283d6d26364710cbae3d7e63e20",
        "nonce": "0x19",
        "accessList": []
      },
      "additionalContracts": [],
      "isFixedGasLimit": false
    }
  ],
  "receipts": [],
  "libraries": [],
  "pending": [
    "0xd0be2151e016fc30e2cf9eed80dd5bb2c939001dab1716119887c1595635d44d",
    "0x0fd387712b478504c14064aed2d5f4730dc72089cf4bbe9c43494ce875839ac1"
  ],
  "path": "E:/projects/nodeguardians/ng-ctf-helper/broadcast\\AttackMaagiriTrial.s.sol\\5\\run-latest.json",
  "returns": {},
  "timestamp": 1698434602,
  "chain": 5,
  "multi": false,
  "commit": "95a0691"
}