{
  "transactions": [
    {
      "hash": "0x2fb8dbef92b036eafd6f33788ec0dda9efe03bb83aca4ea063d2f293f4e68ada",
      "transactionType": "CREATE",
      "contractName": "AttackBasilisk",
      "contractAddress": "0x14478816D9fe2ed63E5401b2D20bA04Fa59aFE96",
      "function": null,
      "arguments": [
        "0xDb53eB45761A7B8f4B212eA448879f40f2eFddFC"
      ],
      "rpc": "https://rpc.ankr.com/eth_goerli",
      "transaction": {
        "type": "0x02",
        "from": "0xc2ba723430706885144a37b2ec74feb82a0c1333",
        "gas": "0x2ce84",
        "value": "0x0",
        "data": "0x608060405234801561001057600080fd5b506040516101db3803806101db83398101604081905261002f91610088565b806001600160a01b031663e97dcb626040518163ffffffff1660e01b8152600401600060405180830381600087803b15801561006a57600080fd5b505af115801561007e573d6000803e3d6000fd5b50505050506100b8565b60006020828403121561009a57600080fd5b81516001600160a01b03811681146100b157600080fd5b9392505050565b610114806100c76000396000f3fe6080604052348015600f57600080fd5b506004361060325760003560e01c8063016b7611146037578063d2ef7398146048575b600080fd5b6046604236600460b0565b605c565b005b604080516001815290519081900360200190f35b806001600160a01b0316637302ec476040518163ffffffff1660e01b8152600401600060405180830381600087803b158015609657600080fd5b505af115801560a9573d6000803e3d6000fd5b5050505050565b60006020828403121560c157600080fd5b81356001600160a01b038116811460d757600080fd5b939250505056fea2646970667358221220db006052c2f0ecabd7b6d5b7ec419274da2591c4e0008f7bc912022ff8d06f3e64736f6c63430008130033000000000000000000000000db53eb45761a7b8f4b212ea448879f40f2efddfc",
        "nonce": "0x7",
        "accessList": []
      },
      "additionalContracts": [],
      "isFixedGasLimit": false
    },
    {
      "hash": "0x1cb9e9b814d1fa10ad7b77c03da97f881a9f0d72fdba0e01bc5ca60f0b97de74",
      "transactionType": "CALL",
      "contractName": "AttackBasilisk",
      "contractAddress": "0x14478816D9fe2ed63E5401b2D20bA04Fa59aFE96",
      "function": "slay(address)",
      "arguments": [
        "0xDb53eB45761A7B8f4B212eA448879f40f2eFddFC"
      ],
      "rpc": "https://rpc.ankr.com/eth_goerli",
      "transaction": {
        "type": "0x02",
        "from": "0xc2ba723430706885144a37b2ec74feb82a0c1333",
        "to": "0x14478816d9fe2ed63e5401b2d20ba04fa59afe96",
        "gas": "0x11c60",
        "value": "0x0",
        "data": "0x016b7611000000000000000000000000db53eb45761a7b8f4b212ea448879f40f2efddfc",
        "nonce": "0x8",
        "accessList": []
      },
      "additionalContracts": [],
      "isFixedGasLimit": false
    }
  ],
  "receipts": [
    {
      "transactionHash": "0x2fb8dbef92b036eafd6f33788ec0dda9efe03bb83aca4ea063d2f293f4e68ada",
      "transactionIndex": "0x2",
      "blockHash": "0x9b37c46dfdc0ed73145ac8d5520f58f7c1c83dbbae64677b68e8071987c9bf6f",
      "blockNumber": "0x979904",
      "from": "0xc2ba723430706885144a37b2EC74feb82A0C1333",
      "to": null,
      "cumulativeGasUsed": "0x452e3",
      "gasUsed": "0x228d5",
      "contractAddress": "0x14478816D9fe2ed63E5401b2D20bA04Fa59aFE96",
      "logs": [],
      "status": "0x1",
      "logsBloom": "0x00000000000000000000000000000000000000000000000000000000000000000000000000000000000000000000000000000000000000000000000000000000000000000000000000000000000000000000000000000000000000000000000000000000000000000000000000000000000000000000000000000000000000000000000000000000000000000000000000000000000000000000000000000000000000000000000000000000000000000000000000000000000000000000000000000000000000000000000000000000000000000000000000000000000000000000000000000000000000000000000000000000000000000000000000000000",
      "type": "0x2",
      "effectiveGasPrice": "0xb2d05e19"
    },
    {
      "transactionHash": "0x1cb9e9b814d1fa10ad7b77c03da97f881a9f0d72fdba0e01bc5ca60f0b97de74",
      "transactionIndex": "0x3",
      "blockHash": "0x9b37c46dfdc0ed73145ac8d5520f58f7c1c83dbbae64677b68e8071987c9bf6f",
      "blockNumber": "0x979904",
      "from": "0xc2ba723430706885144a37b2EC74feb82A0C1333",
      "to": "0x14478816D9fe2ed63E5401b2D20bA04Fa59aFE96",
      "cumulativeGasUsed": "0x51555",
      "gasUsed": "0xc272",
      "contractAddress": null,
      "logs": [],
      "status": "0x1",
      "logsBloom": "0x00000000000000000000000000000000000000000000000000000000000000000000000000000000000000000000000000000000000000000000000000000000000000000000000000000000000000000000000000000000000000000000000000000000000000000000000000000000000000000000000000000000000000000000000000000000000000000000000000000000000000000000000000000000000000000000000000000000000000000000000000000000000000000000000000000000000000000000000000000000000000000000000000000000000000000000000000000000000000000000000000000000000000000000000000000000",
      "type": "0x2",
      "effectiveGasPrice": "0xb2d05e19"
    }
  ],
  "libraries": [],
  "pending": [],
  "path": "E:/projects/nodeguardians/ng-ctf-helper/broadcast\\AttackBasilisk.s.sol\\5\\run-latest.json",
  "returns": {},
  "timestamp": 1698337468,
  "chain": 5,
  "multi": false,
  "commit": "e2c07ee"
}